{
  "contractName": "Voting",
  "abi": [
    {
      "constant": true,
      "inputs": [
        {
          "name": "",
          "type": "bytes32"
        }
      ],
      "name": "votes",
      "outputs": [
        {
          "name": "",
          "type": "uint8"
        }
      ],
      "payable": false,
      "stateMutability": "view",
      "type": "function"
    },
    {
      "anonymous": false,
      "inputs": [],
      "name": "UpdateCandidates",
      "type": "event"
    },
    {
      "constant": true,
      "inputs": [
        {
          "name": "candidate",
          "type": "bytes32"
        }
      ],
      "name": "getCandidateVotes",
      "outputs": [
        {
          "name": "",
          "type": "uint8"
        }
      ],
      "payable": false,
      "stateMutability": "view",
      "type": "function"
    },
    {
      "constant": true,
      "inputs": [],
      "name": "listCandidates",
      "outputs": [
        {
          "name": "",
          "type": "bytes32[]"
        }
      ],
      "payable": false,
      "stateMutability": "view",
      "type": "function"
    },
    {
      "constant": false,
      "inputs": [
        {
          "name": "candidate",
          "type": "bytes32"
        }
      ],
      "name": "postulateCandidate",
      "outputs": [],
      "payable": false,
      "stateMutability": "nonpayable",
      "type": "function"
    },
    {
      "constant": false,
      "inputs": [
        {
          "name": "candidate",
          "type": "bytes32"
        }
      ],
      "name": "voteForCandidate",
      "outputs": [],
      "payable": false,
      "stateMutability": "nonpayable",
      "type": "function"
    },
    {
      "constant": true,
      "inputs": [
        {
          "name": "source",
          "type": "string"
        }
      ],
      "name": "stringToBytes32",
      "outputs": [
        {
          "name": "result",
          "type": "bytes32"
        }
      ],
      "payable": false,
      "stateMutability": "pure",
      "type": "function"
    }
  ],
  "bytecode": "0x608060405234801561001057600080fd5b50610548806100206000396000f3fe608060405260043610610078576000357c0100000000000000000000000000000000000000000000000000000000900463ffffffff1680632b38cd961461007d578063a656234f146100d2578063cc9ab26714610127578063cfb5192814610162578063d4ca00f11461023e578063f0f5274e14610279575b600080fd5b34801561008957600080fd5b506100b6600480360360208110156100a057600080fd5b81019080803590602001909291905050506102e5565b604051808260ff1660ff16815260200191505060405180910390f35b3480156100de57600080fd5b5061010b600480360360208110156100f557600080fd5b8101908080359060200190929190505050610305565b604051808260ff1660ff16815260200191505060405180910390f35b34801561013357600080fd5b506101606004803603602081101561014a57600080fd5b810190808035906020019092919050505061033f565b005b34801561016e57600080fd5b506102286004803603602081101561018557600080fd5b81019080803590602001906401000000008111156101a257600080fd5b8201836020820111156101b457600080fd5b803590602001918460018302840111640100000000831117156101d657600080fd5b91908080601f016020809104026020016040519081016040528093929190818152602001838380828437600081840152601f19601f8201169050808301925050505050505091929192905050506103bd565b6040518082815260200191505060405180910390f35b34801561024a57600080fd5b506102776004803603602081101561026157600080fd5b81019080803590602001909291905050506103e9565b005b34801561028557600080fd5b5061028e610456565b6040518080602001828103825283818151815260200191508051906020019060200280838360005b838110156102d15780820151818401526020810190506102b6565b505050509050019250505060405180910390f35b60006020528060005260406000206000915054906101000a900460ff1681565b6000610310826104ae565b151561031857fe5b60008083815260200190815260200160002060009054906101000a900460ff169050919050565b610348816104ae565b151561035057fe5b600160008083815260200190815260200160002060008282829054906101000a900460ff160192506101000a81548160ff021916908360ff1602179055507fdd0f1f6f364d3aff1f7d97d9260ba0a0acfcbfa5148dd66cc62f07ccbcf874ce60405160405180910390a150565b600060608290506000815114156103db5760006001029150506103e4565b60208301519150505b919050565b6103f2816104ae565b1515156103fb57fe5b60018190806001815401808255809150509060018203906000526020600020016000909192909190915055507fdd0f1f6f364d3aff1f7d97d9260ba0a0acfcbfa5148dd66cc62f07ccbcf874ce60405160405180910390a150565b606060018054806020026020016040519081016040528092919081815260200182805480156104a457602002820191906000526020600020905b815481526020019060010190808311610490575b5050505050905090565b60008060018054905014156104c65760009050610517565b60008090505b60018054905081101561051157826001828154811015156104e957fe5b90600052602060002001541415610504576001915050610517565b80806001019150506104cc565b50600090505b91905056fea165627a7a72305820e4916ea1c27f39c21fe7a27b64f1db7a5d7ac5af4e65ce6d1325ea22cef8a4240029",
  "source": "pragma solidity >=0.4.21 <0.6.0;\n\ncontract Voting {\n  mapping (bytes32 => uint8) public votes;\n  bytes32[] private candidateList ;\n\n  event UpdateCandidates();\n\n  function getCandidateVotes(bytes32 candidate) public view returns (uint8) {\n    assert(doesCandidateExist(candidate));\n\n    return votes[candidate];\n  }\n\n  function listCandidates() public view returns (bytes32[] memory) {\n    return candidateList;\n  }\n\n  function postulateCandidate(bytes32 candidate) public {\n    assert(!doesCandidateExist(candidate));\n\n    candidateList.push(candidate);\n    emit UpdateCandidates();\n  }\n\n  function voteForCandidate(bytes32 candidate) public {\n    assert(doesCandidateExist(candidate));\n\n    votes[candidate] += 1;\n    emit UpdateCandidates();\n  }\n\n  function doesCandidateExist(bytes32 candidate) internal view returns (bool) {\n    if(candidateList.length == 0){\n\treturn false;\n    }\n    for (uint i = 0; i < candidateList.length; i++) {\n      if ( candidateList[i] ==  candidate) {\n        return true;\n      }\n    }\n    return false;\n  }\n  function stringToBytes32(string memory source) public pure returns (bytes32 result) {\n    bytes memory tempEmptyStringTest = bytes(source);\n    if (tempEmptyStringTest.length == 0) {\n        return 0x0;\n    }\n\n    assembly {\n        result := mload(add(source, 32))\n    }\n}\n}\n",
  "sourcePath": "/app/contracts/Voting.sol",
  "compiler": {
    "name": "solc",
    "version": "0.5.0+commit.1d4f565a.Emscripten.clang"
  },
  "schemaVersion": "3.0.9",
  "updatedAt": "2020-11-29T15:04:04.984Z",
  "devdoc": {
    "methods": {}
  },
  "userdoc": {
    "methods": {}
  }
}